{
  "contractName": "Math",
  "abi": [
    {
      "anonymous": false,
      "inputs": [
        {
          "indexed": false,
          "name": "_value",
          "type": "uint256"
        }
      ],
      "name": "Hello",
      "type": "event"
    },
    {
      "constant": false,
      "inputs": [
        {
          "name": "x",
          "type": "uint256"
        }
      ],
      "name": "add",
      "outputs": [],
      "payable": false,
      "stateMutability": "nonpayable",
      "type": "function"
    },
    {
      "constant": false,
      "inputs": [
        {
          "name": "x",
          "type": "uint256"
        }
      ],
      "name": "sub",
      "outputs": [],
      "payable": false,
      "stateMutability": "nonpayable",
      "type": "function"
    },
    {
      "constant": false,
      "inputs": [
        {
          "name": "x",
          "type": "uint256"
        }
      ],
      "name": "mul",
      "outputs": [],
      "payable": false,
      "stateMutability": "nonpayable",
      "type": "function"
    },
    {
      "constant": false,
      "inputs": [
        {
          "name": "x",
          "type": "uint256"
        }
      ],
      "name": "div",
      "outputs": [],
      "payable": false,
      "stateMutability": "nonpayable",
      "type": "function"
    },
    {
      "constant": false,
      "inputs": [],
      "name": "get",
      "outputs": [
        {
          "name": "retVal",
          "type": "uint256"
        }
      ],
      "payable": false,
      "stateMutability": "nonpayable",
      "type": "function"
    }
  ],
  "bytecode": "0x608060405234801561001057600080fd5b50610201806100206000396000f30060806040526004361061006d576000357c0100000000000000000000000000000000000000000000000000000000900463ffffffff1680631003e2d214610072578063131e2f181461009f57806327ee58a6146100cc5780636d4ce63c146100f9578063eba31cc414610124575b600080fd5b34801561007e57600080fd5b5061009d60048036038101908080359060200190929190505050610151565b005b3480156100ab57600080fd5b506100ca6004803603810190808035906020019092919050505061015f565b005b3480156100d857600080fd5b506100f76004803603810190808035906020019092919050505061016d565b005b34801561010557600080fd5b5061010e61017b565b6040518082815260200191505060405180910390f35b34801561013057600080fd5b5061014f600480360381019080803590602001909291905050506101be565b005b806000540160008190555050565b806000540260008190555050565b806000540360008190555050565b60007f775a94827b8fd9b519d36cd827093c664f93347070a554f65e4a6f56cd7388986000546040518082815260200191505060405180910390a1600054905090565b806000548115156101cb57fe5b04600081905550505600a165627a7a7230582009ed4af6dc0add78d860694f2edac461525735b1706704df04e780f4ef82f6cd0029",
  "source": "pragma solidity ^0.4.18;\r\ncontract Math {\r\n    uint storedData;\r\n    event Hello(\r\n        uint _value\r\n    );\r\n\r\n    function add(uint x) public {\r\n        storedData = storedData + x;\r\n    }\r\n\r\n    function sub(uint x) public {\r\n        storedData = storedData - x;\r\n    }\r\n\r\n    function mul(uint x) public {\r\n        storedData = storedData * x;\r\n    }\r\n\r\n    function div(uint x) public {\r\n        storedData = storedData / x;\r\n    }\r\n    function get() public returns (uint retVal) {\r\n        Hello(storedData);\r\n        return storedData;\r\n    }\r\n}",
  "sourcePath": "G:\\Code\\contract-test\\contracts\\Math.sol",
  "compiler": {
    "name": "solc",
    "version": "0.4.24+commit.e67f0147.Emscripten.clang"
  },
  "schemaVersion": "2.0.1",
  "updatedAt": "2018-12-19T12:08:57.565Z"
}